{
  "contractName": "Counter",
  "abi": [
    {
      "inputs": [],
      "name": "counter",
      "outputs": [
        {
          "internalType": "uint256",
          "name": "",
          "type": "uint256"
        }
      ],
      "stateMutability": "view",
      "type": "function",
      "constant": true
    },
    {
      "inputs": [],
      "name": "increase",
      "outputs": [
        {
          "internalType": "uint256",
          "name": "",
          "type": "uint256"
        }
      ],
      "stateMutability": "nonpayable",
      "type": "function"
    },
    {
      "inputs": [],
      "name": "decrease",
      "outputs": [
        {
          "internalType": "uint256",
          "name": "",
          "type": "uint256"
        }
      ],
      "stateMutability": "nonpayable",
      "type": "function"
    }
  ],
  "bytecode": "0x6080604052603260005534801561001557600080fd5b506101e8806100256000396000f3fe608060405234801561001057600080fd5b50600436106100415760003560e01c806361bc221a14610046578063d732d95514610064578063e8927fbc14610082575b600080fd5b61004e6100a0565b60405161005b91906100eb565b60405180910390f35b61006c6100a6565b60405161007991906100eb565b60405180910390f35b61008a6100c1565b60405161009791906100eb565b60405180910390f35b60005481565b600080600081546100b690610110565b919050819055905090565b600080600081546100d19061013a565b919050819055905090565b6100e581610106565b82525050565b600060208201905061010060008301846100dc565b92915050565b6000819050919050565b600061011b82610106565b9150600082141561012f5761012e610183565b5b600182039050919050565b600061014582610106565b91507fffffffffffffffffffffffffffffffffffffffffffffffffffffffffffffffff82141561017857610177610183565b5b600182019050919050565b7f4e487b7100000000000000000000000000000000000000000000000000000000600052601160045260246000fdfea2646970667358221220b50024eb4f6d34aa9d25fd60b1f9c6606d6b4eef9cb1a910f2330384a4f7d06c64736f6c63430008070033",
  "immutableReferences": {},
  "source": "// SPDX-License-Identifier: MIT\npragma solidity 0.8.7;\n\ncontract Counter {\n  uint public counter = 50;\n\n  function increase() public returns (uint) {\n    return ++counter;\n  }\n\n  function decrease() public returns (uint) {\n    return --counter;\n  }\n}\n",
  "sourcePath": "/Users/gsas/gsas/Projects/solidityFirst/counter-sc/contracts/Counter.sol",
  "compiler": {
    "name": "solc",
    "version": "0.8.7+commit.e28d00a7.Emscripten.clang"
  },
  "schemaVersion": "3.4.3",
  "updatedAt": "2021-09-11T19:34:46.543Z",
  "networkType": "ethereum",
  "devdoc": {
    "kind": "dev",
    "methods": {},
    "version": 1
  },
  "userdoc": {
    "kind": "user",
    "methods": {},
    "version": 1
  }
}